:020000040800F2
:108000001050002045810008D7DC0008B7CB0008DD
:10801000D5DC0008C7B20008D50101080000000047
:1080200000000000000000000000000049EE000811
:10803000F5B8000800000000A1DF0008D9F2000830
:108040005F8100085F8100085F8100085F81000890
:108050005F8100085F8100085F8100085F81000880
:108060005F8100085F8100085F8100085F81000870
:108070005F81000869B400085F81000875B40008DA
:1080800081B400085F8100085F8100085F810008FB
:108090005F8100085F8100085F8100085F81000840
:1080A0005F8100085F8100085F8100085F81000830
:1080B0005F8100085F8100085F8100085F81000820
:1080C0005F8100085F8100085F8100085F81000810
:1080D0005F81000895F80008B1F90008EDFA000882
:1080E0005F8100085F8100085F8100085F810008F0
:1080F0005F8100085F8100085F8100085F810008E0
:108100005F8100085F810008DDF200085F810008E0
:1081100029F800082DF800085F8100085F81000839
:108120005F8100085F8100088DB400085F8100084E
:10813000DFF80CD002F0ECFC004800475D2301089A
:10814000105000200648804706480047FEE7FEE73B
:10815000FEE7FEE7FEE7FEE7FEE7FEE7FEE7FEE7F7
:10816000318200083181000800200021654A126830
:1081700042F48032634B1A6000BF624A126802F414
:108180000031401C11B9B0F5A06FF6D15D4A1268FC
:1081900012F4003F01D0012100E00021012942D169
:1081A000594A126842F01002574B1A601A46126878
:1081B00022F003021A601A46126842F002021A60A4
:1081C000504A52684F4B5A601A4652685A601A46D3
:1081D000526842F480625A601A46526822F47C1255
:1081E0005A601A46526842F4E8125A601A461268F7
:1081F00042F080721A6000BF424A126812F0007F9B
:10820000FAD0404A526822F003023E4B5A601A46A6
:10821000526842F002025A6000BF3A4A526802F0C5
:108220000C02082AF9D1704710B5FFF79DFF10BD69
:1082300010B53448006840F0010032490860084633
:108240004068324908402F49486008460068304974
:1082500008402C4908600846006820F48020086027
:108260000846406820F4FE0048604FF41F00886014
:10827000FFF7DAFF10BD10B5002000210022214BCE
:108280005B6803F00C0020B1042806D0082828D130
:1082900007E0204B204C236027E01E4B1E4C236040
:1082A00023E0184B5B6803F47011164B5B6803F412
:1082B0008032022303EB914122B9184B4B43164CF9
:1082C00023600DE00F4B5B6813F4003F04D0134BA9
:1082D0004B43114C236003E00E4B4B430E4C236089
:1082E00003E00C4B0C4C236000BF00BF054B5B68E8
:1082F000C3F303130A4CE05C074B1B68C340064CF6
:10830000236010BD00100240002002400000FFF872
:10831000FFFFF6FE00127A00B403002000093D00C2
:10832000B803002032490143324A1160704770B5EA
:10833000002100230F22C4780CB32E4C246804F4CF
:10834000E064C4F5E064210AC1F10403CA40447842
:1083500004FA03F18478144021430901264C06787D
:10836000A155047804F01F050124AC4005786D1177
:108370004FF0E02606EB8505C5F8004109E00478DA
:1083800004F01F040125A5401C4C0678761144F822
:10839000265070BD1A4A0A400243164B1B1F1A6032
:1083A000704741B1134A121D126802434FF0E02397
:1083B000C3F8102D07E00F4A121D126882434FF0D8
:1083C000E023C3F8102D7047042808D14FF0E021B6
:1083D000096941F004014FF0E022116107E04FF01C
:1083E000E021096921F004014FF0E022116170479A
:1083F0000000FA050CED00E000E400E080E100E0A0
:1084000080FFFF1F016821F0010101600021016070
:1084100041608160C1608E49884208D18C49083929
:10842000496841F00F018A4A083A516090E0884952
:108430001431884208D186490839496841F0F00171
:10844000834A083A516083E081492831884208D143
:108450007F490839496841F470617D4A083A5160A2
:1084600076E07B493C31884208D17949083949682E
:1084700041F47041764A083A516069E074495031DC
:10848000884208D172490839496841F47021704A1C
:10849000083A51605CE06E496431884208D16C4909
:1084A0000839496841F47001694A083A51604FE05F
:1084B00067497831884208D165490839496841F0EF
:1084C0007061634A083A516042E06249884208D1CB
:1084D000011F096841F00F015D4A083AC2F804140F
:1084E00036E05C491431884209D15A49091F0968AC
:1084F00041F0F001564A083AC2F8041428E0554900
:108500002831884209D15349091F096841F4706133
:108510004F4A083AC2F804141AE04E493C318842E6
:1085200009D14C49091F096841F47041484A083A89
:10853000C2F804140CE047495031884208D145493B
:10854000091F096841F47021414A083AC2F804142D
:10855000704710B50022026847F6F0739A430C6A20
:108560008B6823430C6923434C6923438C69234361
:10857000CC6923434C6A23438C6A23431A43026029
:10858000CB6843600B6883604B68C36010BD0021FB
:10859000016041608160C160016141618161C161CF
:1085A000016241628162704721B1026842F00102BA
:1085B000026003E0026822F00102026070471AB113
:1085C00003680B43036002E003688B43036070475A
:1085D0000146486880B2704702460020002112F030
:1085E000805F03D01B4B083B196802E0184B083B27
:1085F0001968114201D0012000E00020704710F0FE
:10860000805F03D01349091F086002E01049083950
:108610004860704702460020002112F0805F03D0BE
:108620000C4B083B196802E0094B083B19681142E2
:1086300001D0012000E00020704710F0805F03D0DF
:108640000449091F086002E0014908394860704781
:1086500008000240080402400021FF4A116801F0AE
:108660003801014311607047FB49096821F0080196
:10867000F94A116011460968014311607047F649D3
:10868000096821F01001F44A11601146096801439C
:1086900011607047F148F0494860F1484860704700
:1086A000EE48ED494860EE4848607047EA48006986
:1086B00040F08000E84908617047E748006940F0F1
:1086C0008000E549086170470420E349C96801F06A
:1086D0000101012901D101200EE0DF49C96811F033
:1086E000040F01D0022007E0DB49C96811F0100F28
:1086F00001D0032000E00420704700B502460423A7
:10870000FFF7E2FF034603E0FFF7DEFF0346521EDA
:10871000012B01D1002AF7D102B90523184600BD6B
:1087200030B5044604254FF43020FFF7E6FF054638
:10873000042D19D1C848006940F00200C6490861FB
:1087400008464461006940F0400008614FF4302061
:10875000FFF7D3FF0546052D06D0BF48006941F657
:10876000FD710840BC490861284630BD10B504249D
:108770004FF43020FFF7C1FF0446042C18D1B6484F
:10878000006940F00400B44908610846006940F0FF
:10879000400008614FF43020FFF7AFFF0446052C7E
:1087A00006D0AD48006941F6FB710840AA4908614E
:1087B000204610BD00B502460423FFF785FF03469F
:1087C00003E0FFF781FF0346521E012B01D1002A6F
:1087D000F7D102B90523184600BD10B504244FF4A3
:1087E0003020FFF7E7FF0446042C18D19A480069AF
:1087F00040F00400984908610846006940F04000D4
:1088000008614FF43020FFF7D5FF0446052C06D051
:108810009148006941F6FB7108408F490861204684
:1088200010BD00208C49C96911F0020F01D0012050
:1088300000E00020704730B5A5240425FFF7F1FFC4
:1088400000B100244FF43020FFF757FF0546042DF8
:108850003AD182488049886081488860084600692A
:1088600040F0200008610846006940F040000861BF
:108870004FF43020FFF741FF0546042D1BD1764809
:10888000006941F6DF7108407349086108460069D4
:1088900040F01000086173480480E802FFF72DFFE4
:1088A0000546052D10D06C48006941F6EF7108406F
:1088B0006949086108E0052D06D06748006941F65E
:1088C000EF71084064490861284630BDF0B50446A0
:1088D0000D4604260027F002FFF70FFF0646042E80
:1088E00026D15D48006940F001005B4908612580A0
:1088F000F002FFF702FF0646042E10D1A71C280C39
:108900003880F002FFF7F9FE0646052E10D05248D7
:10891000006941F6FE7108404F49086108E0052EE4
:1089200006D04D48006941F6FE7108404A49086189
:108930003046F0BD70B504460D460426F002FFF740
:10894000DCFE0646042E13D14348006940F00100C6
:10895000414908612580F002FFF7CFFE0646052E4B
:1089600006D03D48006941F6FE7108403A49086169
:10897000304670BD70B504460D460426F002FFF780
:10898000BCFE0646042E17D134483349886034486B
:1089900088600846006940F0100008612580F002F8
:1089A000FFF7ABFE0646052E06D02B48006941F6C0
:1089B000EF71084028490861304670BD2DE9F04349
:1089C00004464FF6FF752E462F46A8464FF0040981
:1089D000E443E5B2C4F30726C4F307474FEA14683B
:1089E0004FF40050FFF789FE8146B9F1040F4ED1D4
:1089F0001A48194988601A4888600846006940F09A
:108A000010000861FF2D07D01648083005804FF48C
:108A10000050FFF772FE8146B9F1040F09D1FF2E15
:108A200007D010480A3006804FF40050FFF765FE6B
:108A30008146B9F1040F09D1FF2F07D009480C3046
:108A400007804FF40050FFF758FE8146B9F1040F3C
:108A500013D1B8F1FF0F07E0002002402301674562
:108A6000AB89EFCD00F8FF1F07D06F48A0F80E8844
:108A70004FF40050FFF741FE8146B9F1050F06D0D3
:108A80006A48006941F6EF71084068490861484644
:108A9000BDE8F08330B5044604254FF43020FFF7DD
:108AA0002CFE0546042D41D161486049886061482B
:108AB00088600846006940F02000086108460069A7
:108AC00040F0400008614FF43020FFF716FE0546E5
:108AD000042D22D15548006941F6DF710840534901
:108AE00008610846006940F0100008611CB10020D0
:108AF0005149088002E0A5204F4908804FF43020FA
:108B0000FFF7FBFD0546052D10D04848006941F6EA
:108B1000EF7108404549086108E0052D06D043483B
:108B2000006941F6DF71084040490861284630BDC0
:108B3000F0B504460D46164604273D483B4988607B
:108B40003C488860F802FFF7D8FD0746042F19D18A
:108B50003648006940F010003449086146F0F800DA
:108B6000284320433449891C0880F802FFF7C5FDDB
:108B70000746052F06D02D48006941F6EF710840E1
:108B80002A4908613846F0BD2848C0698008704706
:108B90002648006A704700202449096811F0200F18
:108BA00001D0012000E00020704729B11F4A12695E
:108BB00002431E4B1A6104E01C4A126982431B4B9C
:108BC0001A61704701460020012908D1174AD2696D
:108BD00012F0010F01D0012008E0002006E0134A46
:108BE000D2680A4201D0012000E0002070470F49FE
:108BF000C860704704200D49C96801F001010129CE
:108C000001D101200EE00949C96811F0040F01D01B
:108C1000022007E00549C96811F0100F01D00320B8
:108C200000E004207047000000F0FF1F0020024019
:108C300023016745AB89EFCD00F8FF1F10B504464F
:108C4000C748844208D10121042000F03BFB0021E9
:108C5000042000F037FB46E0C248844208D10121DD
:108C6000082000F02FFB0021082000F02BFB3AE049
:108C7000BD48844208D10121102000F023FB0021CF
:108C8000102000F01FFB2EE0B848844208D10121DB
:108C9000202000F017FB0021202000F013FB22E031
:108CA000B348844208D10121402000F00BFB002191
:108CB000402000F007FB16E0AE48844208D10121B5
:108CC000802000F0FFFA0021802000F0FBFA0AE08B
:108CD000A948844207D10121801500F0F3FA002150
:108CE000A01500F0EFFA10BD10B50121084600F004
:108CF000E9FA0021012000F0E5FA10BDF0B50022EC
:108D00000023002400250026002791F803C00CF062
:108D10000F0291F803C01CF0100F03D091F802C0AD
:108D20004CEA0202B1F800C01CF0FF0F31D0066817
:108D300000242BE04FF0010C0CFA04F5B1F800C050
:108D40000CEA0503AB4220D1A5004FF00F0C0CFA42
:108D500005F7BE4302FA05FC4CEA060691F803C08B
:108D6000BCF1280F06D14FF0010C0CFA04FCC0F83E
:108D700014C00AE091F803C0BCF1480F05D14FF0D0
:108D8000010C0CFA04FCC0F810C0641C082CD1D3F0
:108D90000660B1F800C0BCF1FF0F34DD4668002466
:108DA0002EE004F1080C4FF0010E0EFA0CF5B1F8AC
:108DB00000C00CEA0503AB4221D1A5004FF00F0C17
:108DC0000CFA05F7BE4302FA05FC4CEA060691F8D8
:108DD00003C0BCF1280F05D104F1080C0EFA0CFEFB
:108DE000C0F814E091F803C0BCF1480F07D104F1BA
:108DF000080C4FF0010E0EFA0CFEC0F810E0641CD7
:108E0000082CCED34660F0BD4FF6FF7101800221E1
:108E100081700421C17070470246002093680B42A4
:108E200001D0012000E0002070470146886880B230
:108E3000704702460020D3680B4201D0012000E0B9
:108E4000002070470146C86880B2704701617047D2
:108E5000416170470AB1016100E041617047C16042
:108E600070474FF480320A43826181618261826976
:108E7000826970470022414B1A684FF680731A408E
:108E800042EA00120A433D4B1A6070473C49C861F0
:108E90007047F0B5002200230024002500F00046B2
:108EA000B6F1004F02D1354EF46901E0334E7468DB
:108EB000C0F3034582B200F44016B6F5401F08D156
:108EC00024F070642D4E766826F070662B4F7E601D
:108ED00012E000F48016B6F5801F06D1032606FACC
:108EE00005F39C4344F0706406E0460D360102FA37
:108EF00006F6B44344F0706421B1460D360102FA1F
:108F000006F6344300F00046B6F1004F02D11B4E86
:108F1000F46101E0194E7460F0BD30B500228B079A
:108F20001C0F0F2303FA04F2144B08338C1053F870
:108F3000244094438D1043F825408C1053F824307E
:108F40008C07240F00FA04F423430C4C08348D10D2
:108F500044F8253030BD0A49DC3108607047000014
:108F600000080140000C01400010014000140140C5
:108F700000180140001C0140002001400000014099
:108F8000000020420E49086070470D494860704754
:108F90000B49886070474AF6AA2009490860704763
:108FA0004CF6CC4006490860704701460020044A50
:108FB000D2680A4201D0012000E000207047000082
:108FC00000300040DB48006840F00100D9490860EB
:108FD00008464068D8490840D649486008460068B5
:108FE000D6490840D34908600846006820F480202C
:108FF00008600846406820F4FE0048604FF41F00F7
:1090000088607047CB49096821F48031C94A1160F2
:109010001146096821F480211160B0F5803F03D02A
:10902000B0F5802F0ED106E0C249096841F48031C5
:10903000C04A116007E0BF49096841F4A021BD4A58
:10904000116000E000BF00BF704710B5014600226C
:10905000002300204A11012A02D1B64C236806E001
:10906000022A02D1B34C236A01E0B24C636A01F0D8
:109070001F02012494401C4201D0012000E0002086
:1090800010BD70B500240025002600BF3120FFF779
:10909000DCFF0646641CB4F5A06F01D0002EF5D0AD
:1090A0003120FFF7D2FF08B1012500E00025284656
:1090B00070BD00219F4A116821F0F80141EAC0010A
:1090C000116070479E49086070470022994B5A68AA
:1090D00022F47C1240EA01031A43964B5A6070470F
:1090E0009749086670470021924A516821F00301B0
:1090F0000143516070478F48406800F00C00704792
:1091000000218C4A516821F0F00101435160704701
:109110000021884A516821F4E061014351607047A1
:109120000021844A516821F4605141EAC001516034
:10913000704729B17F4A527A02437E4B5A7206E049
:109140007C4A527AC343DBB21A407A4B5A72704758
:109150007B49D831086070470021764A516821F474
:1091600040410143516070470021724A2032117022
:10917000704A82F82010012802D004280AD104E0A5
:1091800001216C4A2032117005E00521694A203224
:10919000117000E000BF00BF70476A490860704767
:1091A0006449096A0143634A116270476549443959
:1091B0000860704730B500210022002300245D4D77
:1091C0006D6805F00C0121B1042905D0082923D1CF
:1091D00005E05D4D056022E05B4D05601FE0554DEB
:1091E0006D6805F47012534D6D6805F480330225E7
:1091F00005EB92421BB9554D554305600BE04D4DB3
:109200006D6815F4003F03D0504D5543056002E0F2
:109210004D4D5543056002E04B4D056000BF00BF5A
:10922000444D6D6805F0F0010909494D6C5C056815
:10923000E54045603F4D6D6805F4E061090A444D25
:109240006C5C4568E54085603A4D6D6805F4605199
:10925000C90A3F4D6C5C4568E540C560354D6D6899
:1092600005F44041890B3A4D10356C5CC568B5FB7F
:10927000F4F5056130BD29B12E4A526902432D4BE8
:109280005A6104E02B4A526982432A4B5A61704763
:1092900029B1284A92690243264B9A6104E0254A83
:1092A00092698243234B9A61704729B1214AD2695E
:1092B0000243204BDA6104E01E4AD26982431D4B0F
:1092C000DA61704729B11B4AD2680243194BDA6050
:1092D00004E0184AD2688243164BDA60704729B11D
:1092E000144A12690243134B1A6104E0114A1269CD
:1092F0008243104B1A617047124940390860704729
:109300000F49C86470470B49C87170470948406AE3
:1093100040F0807007494862704701460020054AC6
:1093200092680A4201D0012000E000207047014904
:1093300088727047001002400000FFF8FFFFF6FE41
:10934000000042428004424200127A0000093D00BF
:10935000C803002010B50446BE48844208D101214C
:109360008014FFF7AFFF0021A014FFF7ABFF16E05A
:10937000B948844208D101210014FFF7B0FF002151
:109380002014FFF7ACFF0AE0B448844207D1012162
:10939000C013FFF7A4FF0021E013FFF7A0FF10BDEB
:1093A00010B50022028802F441520B884C882343F6
:1093B0008C882343CC8823430C8923434C89234343
:1093C0008C892343CC8923431A430280838B4FF239
:1093D000FF74234083830B8A038210BD2DE9F04F75
:1093E00085B004460D4600260227B0464FF001091D
:1093F000B246B346A08B4FF240010840A083022042
:109400002084A68BA868022801D100BF38E0A88874
:1094100010B94FF0010901E04FF002098E48844273
:1094200000D100E000BF6846FFF7C4FEDDF800B0E1
:10943000E888B0F5007F0BD14FEA1B2000EB8000DD
:109440004000A968B0FBF1F0401D1FFA80FA0CE063
:109450004FEA4910BBFBF0F000EB80004000A96828
:10946000B0FBF1F0401D1FFA80FA0A20BAFBF0FAB7
:109470000AF00108AAEB0800C0F34F074FEA0828DA
:10948000022F01DBFF2F02DD02274FF00008E888E2
:1094900040EA080038432084A888A98908436988DD
:1094A00008432988084340F400600643A68305B0BA
:1094B000BDE8F08F0021018041808180C180018161
:1094C00041818181C1810721018270470021018092
:1094D00041808180C18002218160002181817047AB
:1094E00021B1028842F04002028004E002884FF677
:1094F000BF731A400280704721B1828B42F48062B0
:10950000828304E0828B4FF6FF331A4082837047D8
:1095100070B5002300240B1101259D40ACB21AB197
:1095200085882543858004E08588E643B6B23540CA
:10953000858070BD10B51AB183880B43838004E029
:109540008388CC43A4B22340838010BD81817047BF
:10955000014688897047A1F57E42FF3A04D002880F
:1095600042F48072028004E002884FF6FF631A40E2
:109570000280704721B1828842F00402828004E0B8
:1095800082884FF6FB731A408280704702884FF240
:10959000FF731A40028002880A43028070470188E4
:1095A00041F480510180704721B1028842F4005299
:1095B000028004E002884DF6FF731A400280704773
:1095C00002460020012901D0108B00E0908A7047EC
:1095D0000146088A7047B1F5804F04D1028842F4F1
:1095E0008042028004E002884BF6FF731A4002803A
:1095F00070470246002013890B4201D0012000E091
:1096000000207047CA4302817047F0B5024600202F
:1096100000230024002501F00F070126BE40B3B24D
:109620000C110126A640B4B2968806EA04051689F4
:109630001E4202D00DB1012000E00020F0BD10B5A7
:10964000002201F00F040123A3409AB2D343038107
:1096500010BD00000030014000380040003C0040D8
:1096600010B50446FF48844208D10121C014FFF719
:1096700029FE0021E014FFF725FEC4E0B4F1804F7D
:1096800008D101210846FFF72AFE00210120FFF73B
:1096900026FEB8E0F448844208D101210220FFF7F9
:1096A0001EFE00210220FFF71AFEACE0EF488442C4
:1096B00008D101210420FFF712FE00210420FFF74A
:1096C0000EFEA0E0EA48844208D101210820FFF7FD
:1096D00006FE00210820FFF702FE94E0E5488442E0
:1096E00008D101211020FFF7FAFD00211020FFF71B
:1096F000F6FD88E0E048844208D101212020FFF7F0
:10970000EEFD00212020FFF7EAFD7CE0DB488442EB
:1097100008D101214014FFF7D5FD00216014FFF7A7
:10972000D1FD70E0D648844209D10121C804FFF779
:10973000C9FD00214FF40020FFF7C4FD63E0D148CC
:10974000844209D101210805FFF7BCFD00214FF437
:109750008010FFF7B7FD56E0CB48844209D10121C4
:109760004805FFF7AFFD00214FF40010FFF7AAFDF9
:1097700049E0C648844208D101214020FFF7AFFDEF
:1097800000214020FFF7ABFD3DE0C148844208D1F5
:1097900001218020FFF7A3FD00218020FFF79FFD1E
:1097A00031E0BC48844208D101218015FFF797FDC4
:1097B0000021A015FFF793FD25E0B748844209D1A9
:1097C00001210804FFF77EFD00214FF48030FFF7F0
:1097D00079FD18E0B148844209D101214804FFF71E
:1097E00071FD00214FF40030FFF76CFD0BE0AC4839
:1097F000844208D101218804FFF764FD00214FF461
:109800008020FFF75FFD10BD00220288954B984233
:109810000ED09A4B98420BD0B0F1804F08D0924BAB
:10982000984205D0914B984202D0914B984204D176
:109830004FF68F731A404B881A438E4B984207D0CD
:109840008D4B984204D04FF6FF431A40CB881A4301
:1098500002808B8883850B880385824B98420BD0CE
:10986000864B984208D08C4B984205D08B4B98423F
:1098700002D08B4B984201D10B7A0386012383825D
:10988000704770B5002200230024058C4FF6FE7649
:1098900035400584038C8488028B4FF68F752A40EF
:1098A000B51E2A400D882A43751E2B400D892B4377
:1098B0004D882B436B4DA8420BD0704DA84208D069
:1098C000754DA84205D0754DA84202D0744DA842EE
:1098D00013D14FF6F7752B404D892B434FF6FB758F
:1098E0002B408D882B434FF6FF652C404FF6FF55DC
:1098F0002C408D892C43CD892C4384800283CD88D4
:109900008586038470BD70B5002200230024058C79
:109910004FF6EF7635400584038C8488028B48F639
:10992000FF752A404FF6FF452A400D882D0642EA72
:1099300015424FF6DF752B400D892D0543EA15437F
:109940004D882D0543EA1543464DA84202D04B4DA4
:10995000A8421BD14FF67F752B404D892D0543EA58
:1099600015434FF6BF752B408D882D0543EA1543EF
:109970004FF6FF352C404FF2FF752C408D89AD041A
:1099800044EA1544CD89AD0444EA15448480028339
:10999000CD880587038470BD70B5002200230024A4
:1099A000058C4FF6FF6635400584038C8488828BD6
:1099B0004FF68F752A404FF6FC752A400D882A43D2
:1099C0004FF6FF552B400D892D0643EA15434D8870
:1099D0002D0643EA1543234DA84202D0274DA84245
:1099E0001BD14FF2FF752B404D892D0643EA1543DD
:1099F0004FF6FF352B408D882D0643EA15434EF672
:109A0000FF752C404DF6FF752C408D892D0544EADD
:109A10001544CD892D0544EA154484808283CD8880
:109A20008587038470BD70B5002200230024058C57
:109A30004EF6FF7635400584038C8488828B48F689
:109A4000FF752A404FF6FF452A400D882D0642EA51
:109A500015424DF6FF752B400D892D0743EA15433E
:109A60004D881FE0002C0140000400400008004029
:109A7000000C004000100040001400400034014081
:109A8000004C0140005001400054014000180040CB
:109A9000001C004000200040004001400044014004
:109AA000004801402D0743EA1543FB4DA84202D070
:109AB000FA4DA84206D14BF6FF752C408D89AD05B5
:109AC00044EA154484808283CD88A0F84050038402
:109AD00070BD828B4FF2FF331A408283828B0B065C
:109AE00042EA134282837047F0B500240025002625
:109AF000078C4EF6FF7C07EA0C070784848B058CE5
:109B00000F073E0C40F6FF473C40170644EA174457
:109B10001F0744EA17444DF6FF773D4046F480574F
:109B20003D4384830584F0BD828B4FF6F3731A4066
:109B30008283828B0A4382837047F0B5002500241C
:109B40000026078C4FF6FF6C07EA0C070784858B0D
:109B5000048C0F063E0C4FF60C773D401F0542EA81
:109B600017473D434FF6FF573C4046F480773C4350
:109B700085830484F0BD028B4FF2FF331A400283C9
:109B8000028B0B0642EA134202837047F0B50024B1
:109B900000250026078C4FF6EF7C07EA0C070784A8
:109BA000048B058C0F053E0C40F6FF473C401F0719
:109BB00044EA1744170644EA17444FF6DF773D405E
:109BC00046F010073D4304830584F0BD028B4FF639
:109BD000F3731A400283028B0A4302837047F0B585
:109BE00000240025068C4FF6FE773E400684048B49
:109BF000058C4FF60C7634401E0542EA1646344377
:109C00007E1E354041F00106354304830584F0BDD6
:109C100070B504460D46288850B92B89AA886988F2
:109C20002046FFF7DCFFE9882046FFF7CFFF25E05D
:109C3000288804280AD12B89AA8869882046FFF73A
:109C4000A5FFE9882046FFF796FF17E02888082837
:109C50000AD12B89AA8869882046FFF76EFFE98818
:109C60002046FFF761FF09E02B89AA886988204612
:109C7000FFF73AFFE9882046FFF72BFF70BD2DE97B
:109C8000F04104460D4600260127688808B90226DF
:109C900000E00026A888012801D1022700E0012762
:109CA0002888A0B92B89AA8869882046FFF797FFE2
:109CB000E9882046FFF78AFF2B893A46314620463D
:109CC000FFF764FFE9882046FFF755FF13E02B8973
:109CD000AA8869882046FFF759FFE9882046FFF7E0
:109CE0004AFF2B893A4631462046FFF778FFE9883C
:109CF0002046FFF76BFFBDE8F0810A884B881A43C6
:109D00008B881A43CB881A430B891A434B891A4311
:109D10008B891A43A0F8442070474FF6FF71818069
:109D200000210180C18041800172704700210180C3
:109D300041808180C180018141818181C1817047E1
:109D4000002101804180012181800021C1800181A9
:109D500070470021018041808180C1800181418163
:109D60008181704721B1028842F00102028004E043
:109D700002884FF6FE731A400280704731B1B0F886
:109D8000442042F40042A0F8442005E0B0F844200A
:109D9000C2F30E02A0F84420704710B51AB18389AF
:109DA0000B43838104E08389CC43A4B223408381A5
:109DB00010BD8182704741EA0203A0F84830704725
:109DC00010B51AB183890B43838104E08389CC43A6
:109DD000A4B22340838110BD01894FF6F87211406F
:109DE00001817047002202894FF68F731A400A439F
:109DF0000281704730B504460D4629462046FFF7DC
:109E0000F1FF208940F00700208130BD2DE9F041AD
:109E100004460D4616461F46602D06D13B460122DC
:109E200031462046FFF7B2FE05E03B4601223146AF
:109E30002046FFF7D4FE29462046FFF7D3FF2089AE
:109E400040F007002081BDE8F08130B5002404898E
:109E5000E4B21D0642EA15450D432C43048130BD92
:109E60002DE9F04104460D46164698460027434624
:109E7000324629462046FFF7E8FF27894FF6F8705B
:109E8000074047F007074FF68F70074047F070070D
:109E90002781BDE8F0810000002C01400034014022
:109EA000F0B504460D4616461F463B463246294647
:109EB0002046FFF7CAFF208940F480402081F0BD92
:109EC000018582827047002202884FF68F731A4004
:109ED0000A4302807047F0B500240025002604895B
:109EE000058B068C4FF6F8773C400C434FF6FC4749
:109EF0003D4040F201173D434FF6DD773E401F05E0
:109F000042EA17473E43048105830684F0BD0022E0
:109F1000028B4FF68F731A400A4302837047002268
:109F2000028B48F6FF731A400B0642EA1342028383
:109F300070470022828B4FF68F731A400A43828348
:109F400070470022828B48F6FF731A400B0642EAE4
:109F500013428283704721B1028842F0800202805E
:109F600004E002884FF67F731A400280704721B1E7
:109F7000828842F00402828004E082884FF6FB73FC
:109F80001A408280704721B1828842F008028280A4
:109F900004E082884FF6F7731A408280704721B13F
:109FA000828842F00102828004E082884FF6FE73CC
:109FB0001A40828070470022028B4FF6F7731A40D6
:109FC0000A43028370470022028B4FF2FF731A404C
:109FD0000B0642EA1342028370470022828B4FF63F
:109FE000F7731A400A43828370470022828B4FF234
:109FF000FF731A400B0642EA134282837047002225
:10A00000028B4FF6FB731A400A430283704700220B
:10A01000028B4FF6FF331A400B0642EA13420283CB
:10A0200070470022828B4FF6FB731A400A438283EB
:10A0300070470022828B4FF6FF331A400B0642EA2C
:10A040001342828370470022028B4FF67F731A40BF
:10A050000A43028370470022028BC2F30E020B06F2
:10A0600042EA1342028370470022828B4FF67F73CD
:10A070001A400A43828370470022828BC2F30E0289
:10A080000B0642EA1342828370470022028C4FF68D
:10A09000FD731A400A43028470470022028C4FF677
:10A0A000F7731A400A43028470470022028C4FF66D
:10A0B000DF731A400B0542EA134202847047002204
:10A0C000028C4FF67F731A400B0542EA134202845A
:10A0D00070470022028C4FF6FF531A400B0642EAEB
:10A0E0001342028470470022028C4FF2FF731A4021
:10A0F0000B0642EA1342028470470022028C4DF69E
:10A10000FF731A400B0742EA13420284704730B5CE
:10A11000002301248C40A3B2048CDD43ADB22C405B
:10A120000484048C02FA01F5ADB22C43048430BDE2
:10A1300030B5002304248C40A3B2048CDD43ADB2BF
:10A140002C400484048C02FA01F5ADB22C43048443
:10A1500030BD70B50023002403461846183301258E
:10A160008D40ACB2058CE643B6B23540058409B1EA
:10A17000082909D103EB61031D6825F070051D60F6
:10A180001D6815431D600CE00D1FADB203EB6503A8
:10A190001D6825F4E0451D601D68160645EA164554
:10A1A0001D6070BD21B1028842F00202028004E00D
:10A1B00002884FF6FD731A400280704721B1028871
:10A1C00042F00402028004E002884FF6FB731A405A
:10A1D0000280704721B1828842F08002828004E0D0
:10A1E00082884FF67F731A408280704702884FF64C
:10A1F000F7731A40028002880A43028070478288FF
:10A200004FF68F731A40828082880A43828070479B
:10A2100002894FF6F8731A40028102890A430281CB
:10A22000704702894FF67F731A40028102890A4300
:10A2300002817047818470478185704781867047AD
:10A240000187704781877047A0F8401070470288E7
:10A250004FF6FF431A40028002880A43028070478B
:10A260000146888E70470146088F70470146888FE7
:10A2700070470146B1F8400070470146888C70472E
:10A280000146088D704702460020138A0B4201D018
:10A29000012000E000207047CA430282704730B5B9
:10A2A0000246002000230024158A05EA010395894F
:10A2B00005EA010413B10CB1012000E0002030BD1B
:10A2C000CA4302827047000010B50446FB4884422E
:10A2D00009D101218803FEF7F5FF00214FF48040EA
:10A2E000FEF7F0FF32E0F648844209D1012148042C
:10A2F000FEF7F5FF00214FF40030FEF7F0FF25E0F8
:10A30000F048844209D101218804FEF7E8FF0021CA
:10A310004FF48020FEF7E3FF18E0EB48844209D1B8
:10A320000121C804FEF7DBFF00214FF40020FEF7F7
:10A33000D6FF0BE0E548844208D101210805FEF76D
:10A34000CEFF00214FF48010FEF7C9FF10BD2DE9AC
:10A35000F04786B004460D460026002700BFB146F0
:10A36000B246A88900B100BFA246268A4CF6FF700B
:10A370000640E88806432682A6894EF6F31006407A
:10A38000A88829890843698908430643A681A68AC3
:10A390004FF6FF400640A8890643A68201A8FEF7B3
:10A3A00009FF5446C548824501D1049F00E0039F40
:10A3B000A08910F4004F08D007EBC70000EB07108E
:10A3C00029684900B0FBF1F807E007EBC70000EB94
:10A3D000071029688900B0FBF1F86420B8FBF0F0A1
:10A3E00006013009642101FB1089A08910F4004F97
:10A3F00009D0322101EBC9006421B0FBF1F000F07B
:10A400000700064308E0322101EB09106421B0FB8C
:10A41000F1F000F00F000643268106B0BDE8F0879A
:10A420004FF41651016000218180C18001810C210F
:10A43000418100218181704710B50022028A4FF2CC
:10A44000FF031A400B884C8823438C882343CC8815
:10A4500023431A43028210BD002101804180818084
:10A46000C180704721B1828942F40052828104E0A8
:10A4700082894DF6FF731A4082817047F0B500243F
:10A48000002500260023A1F510676A3F00D100BF18
:10A490000346C1F3421401F01F05012707FA05F630
:10A4A000012C01D10C3304E0022C01D1103300E067
:10A4B00014331AB11F6837431F6002E01F68B743A7
:10A4C0001F60F0BD10B51AB1838A0B43838204E08C
:10A4D000838ACC43A4B22340838210BD028A4FF604
:10A4E000F0731A400282028A0A430282704782890C
:10A4F0004FF2FF731A40828182890A43828170473A
:10A5000021B1828942F00202828104E082894FF601
:10A51000FD731A4082817047028A4FF6DF731A403A
:10A520000282028A0A430282704721B1028A42F4FF
:10A530008042028204E0028A4BF6FF731A400282D4
:10A540007047C1F308028280704701468888C0F3D3
:10A5500008007047818941F0010181817047028BB9
:10A56000D2B20283028B42EA012202837047028B3D
:10A5700002F47F420283028B0A430283704721B1B7
:10A58000828A42F02002828204E0828A4FF6DF73E0
:10A590001A408282704721B1828A42F01002828280
:10A5A00004E0828A4FF6EF731A408282704721B12D
:10A5B000828A42F00802828204E0828A4FF6F773B0
:10A5C0001A408282704721B1828942F4004282811E
:10A5D00003E08289C2F30E028281704721B1828A30
:10A5E00042F40062828204E0828A4FF2FF731A40D2
:10A5F00082827047828A4FF6FB731A408282828A77
:10A600000A438282704721B1828A42F0020282822A
:10A6100004E0828A4FF6FD731A4082827047024638
:10A620000020B1F5007F00D100BF13880B4201D09C
:10A63000012000E00020704701F40072B2F5007FB5
:10A6400000D100BFCA430280704770B502460023A4
:10A65000002400250020A1F510666A3E00D100BF4D
:10A66000C1F3421501F01F04012606FA04F4012D7E
:10A6700002D19689344006E0022D02D1168A344078
:10A6800001E0968A34400B12012606FA03F316887D
:10A69000334014B10BB1012000E0002070BD10B5B3
:10A6A00000220023A1F510646A3C00D100BF0A1209
:10A6B00001249440A3B2DC43048010BD0038014063
:10A6C0000044004000480040004C00400050004062
:10A6D00040EA01039B0703D009E008C9121F08C024
:10A6E000042AFAD203E011F8013B00F8013B521EA4
:10A6F000F9D27047D2B201E000F8012B491EFBD21B
:10A7000070470022F6E710B513460A46044619467C
:10A71000FFF7F0FF204610BD30B50B460146002084
:10A720002022012409E021FA02F59D4205D303FA13
:10A7300002F5491B04FA02F52844151EA2F1010294
:10A74000F1DC30BD2DE9F05F0546002092469B46C6
:10A7500088460646814640241BE028464146474637
:10A76000224600F0F6F953465A46C01A914110D3DA
:10A7700011461846224600F0DDF92D1A67EB010854
:10A780004F4622460120002100F0D4F917EB0009C2
:10A790004E41201EA4F10104DFDC484631462A4622
:10A7A0004346BDE8F09F2DE9FE4F804681EA030055
:10A7B000C00F0C46009021F0004123F00045B8EB9B
:10A7C0000200A94105D24046214690461C460B4650
:10A7D000024623F00040104347D0270DC7F30A007C
:10A7E000C3F30A510290401A019040286BDAC3F378
:10A7F000130040F4801B0098924620B10023D2EB56
:10A80000030A63EB0B0B01985946C0F14002504616
:10A8100000F090F906460D4650465946019A00F060
:10A82000A8F910EB08006141002487EA115284EA7C
:10A83000E7731A4340D0009A62B3019A012A4FEAA3
:10A84000075215DC001B61EB02014FF0004202EAE7
:10A850000752CDE90042001C41F5801132462B46DB
:10A8600000F0A6F903B0BDE8F08F40462146F9E7B5
:10A87000001B61EB0201001C41F5801300185B41D5
:10A880002018A2F5001747EB030140EAD570B6196E
:10A890006D4111E06D084FEA360645EAC0754FEA92
:10A8A0000752001B61EB0201001C41F580114908B1
:10A8B0004FEA30000019514132462B4603B0BDE843
:10A8C000F04F00F068B90098012240000023D0EB5F
:10A8D000020263EBE073009821464FEAE074B8EBA4
:10A8E000000061EB0401E9E783F000435BE781F0DE
:10A8F000004158E72DE9FE4F81EA030404F00044CB
:10A9000021F0004100944FF0000B23F0004350EA87
:10A9100001045ED052EA03045BD0C3F30A54C1F3CE
:10A920000A552C44A4F2F3340194A0FB0254C1F361
:10A93000130141F48011C3F3130343F4801301FBAB
:10A94000024400FB034E840A970A44EA815447EA12
:10A950008357A4FB076802958D0A05FB07854FEA1C
:10A96000932C04FB0C542705029D4FEA065847EA36
:10A970001637B5EB08056EEB070C870E920E47EA0B
:10A98000811742EA8312A7FB0201B6EB0B0164EBCD
:10A9900000042B0D43EA0C335E1844EB1C50DA46DE
:10A9A0005146E7FB0201C5F313044FEA0B3343EAB8
:10A9B00014534FEA0432019C43EA0603A4F10C0449
:10A9C0000294009CCDE900B400F0F2F803B0BDE8B9
:10A9D000F08F00200146F9E72DE9F04D81EA0304EC
:10A9E00004F0004B21F0004514464FF0000A23F01C
:10A9F000004150EA050220D054EA01021DD0C5F3FF
:10AA00000A570246C5F31303C1F31300C1F30A56F4
:10AA100040F4801543F48013A7EB0608101BD646BC
:10AA200008F2FD3873EB050002D308F1010801E0DC
:10AA300092185B41B8F1000F03DA00200146BDE82F
:10AA4000F08D00204FF48011064684460EE0171B5F
:10AA500073EB050705D3121B63EB050306434CEAB2
:10AA6000010C49084FEA300092185B4150EA010797
:10AA7000EDD152EA030012D082EA040083EA050114
:10AA8000084305D0101BAB4106D20122002306E08B
:10AA900000224FF0004302E06FF0010253101AEB66
:10AAA00006004CEB085110EB0A0041EB0B01BDE82E
:10AAB000F04D00F070B8C1F30A52C1F3130140F237
:10AAC000FF3341F480119A4202DA002001467047B8
:10AAD00040F233439A42A2F2334202DC524200F087
:10AAE00038B800F027B8000030B5002904DB4FF07B
:10AAF0000044404264EB0101002B04DB4FF00044B2
:10AB0000524264EB0303994208BF904230BD0000FB
:10AB1000064C074D06E0E06840F0010394E80700AA
:10AB200098471034AC42F6D3FDF706FB58480108AD
:10AB300078480108202A04DB203A00FA02F10020BC
:10AB400070479140C2F1200320FA03F3194390406B
:10AB50007047202A04DB203A21FA02F000217047D6
:10AB600021FA02F3D040C2F1200291400843194675
:10AB70007047202A06DBCB17203A41FA02F043EA5D
:10AB8000E07306E041FA02F3D040C2F120029140A6
:10AB900008431946704710B5002B08DA401C41F1F4
:10ABA000000192185B411A4301D120F0010010BD51
:10ABB0002DE9F04D92469B4611B1B1FA81F202E0C7
:10ABC000B0FA80F220329046FFF7B4FF04460F46F9
:10ABD00040EA0A0041EA0B0153465A46084313D0A3
:10ABE000114653EA010019D0C8F140025046FFF760
:10ABF000B0FF05460E46504659464246FFF79AFFBB
:10AC0000084305D0012004E020463946BDE8F08D18
:10AC10000020054346EAE0762C4337430A98630553
:10AC2000E40AA0EB08000022FD0A44EA47540A3077
:10AC300002D500200146E9E7010510196941DDE967
:10AC4000084500196941BDE8F04DA4E770B58C18BE
:10AC500010F8015B15F0070301D110F8013B2A1130
:10AC600006D110F8012B03E010F8016B01F8016B1D
:10AC70005B1EF9D12B0705D40023521E0DD401F819
:10AC8000013BFAE710F8013BCB1A921C03E013F8E2
:10AC9000015B01F8015B521EF9D5A142D8D3002017
:10ACA00070BD00002DE9F84F0446007801254F4F94
:10ACB000002607282AD2DFE800F029042B3D426154
:10ACC00093006078C0EBC00010EB400418D048A09F
:10ACD00008F06FFF1520B4FBF0F4494805554948CA
:10ACE0008DF800608DF8014000798DF8020068460B
:10ACF00006F07AF84448002C05554448068005D1F2
:10AD000043A008F056FF062006F01CFCBDE8F88FB3
:10AD100043A008F04EFF46490020221892780A54BA
:10AD2000401C80B20328F8D342480570607806F0D2
:10AD300023F9EBE740A008F03CFF3D70E6E742A0B6
:10AD400008F037FFE078A17800EB012042490004C9
:10AD5000000C08800FD0002004F058FA3F4805701E
:10AD60003F4806803F48C0F8A4613FA008F021FF9B
:10AD70004248C0F8B46102203870C7E740A008F02C
:10AD800018FFA0786178DFF80CA100EB01214048A2
:10AD9000414FB146018080F82A5000258046601955
:10ADA00008EB0506C078307107EB10108AF80090A8
:10ADB000007808F0FCFE307900F00F00385C08F0F5
:10ADC000F6FE6D1CADB20D2DE9D3B8F800204FF69C
:10ADD000F07140468A4200D901800188418095E7A0
:10ADE0002EA008F0E6FE304805708FE772030020C1
:10ADF000D5D2B5BDD6D5B6CBB5D8D6B700000000F4
:10AE0000E84200207E030020B04400207C030020A4
:10AE1000C3BBD5D2B5BDD6D5B6CBB5D8D6B7000055
:10AE2000B0B4C4A6D2CECAB1BCE4C9E8B6A800008A
:10AE30009503002094030020CDF8B9D82DB0B4C4F8
:10AE4000A6D2CED7B4CCAC00CDF8B9D82DB0B4C40E
:10AE5000A6D2CEC6F4B6AF006A030020620300207B
:10AE60006C03002000802142B0B4C4A6D2CEBFAA99
:10AE7000CABCB9A4D7F738380000000000802242CD
:10AE8000BBF1C8A1D6D5B6CBC1D0B1ED0000000052
:10AE9000AA4500208C030020A2030020BBF1C8A11A
:10AEA000BFA8BAC5000000007303002000F084B8FA
:10AEB00000F0F6B800F014B900F0A4B900F0D0B971
:10AEC00000F0C6BA00F0C6BF01F0F8BD01F034BE14
:10AED00001F08EBE01F0C2BE01F0ECBE00F00CBD70
:10AEE00010B502F041FB002010BD10B503F0E6FBE9
:10AEF000002010BD03F0D8BC10B503F049FD0020C0
:10AF000010BD03F0CBBF38B5049C009404F064F886
:10AF100038BD38B5049C009404F032F838BD10B543
:10AF200002F06CFB002010BD04F0A8B910B502F0CF
:10AF30002DFB002010BD10B501F098F8002010BDC9
:10AF400010B505F048F9002010BD07F015B907F05D
:10AF500013BD0000044810B5C079012801D107F0E5
:10AF60000FFF002010BD0000F900002008B507F019
:10AF700019FF0020411E0090034B09224FF47A7004
:10AF8000FFF7C7FF002008BD952D010810B507F099
:10AF900015FF002010BD00000348007808B1042010
:10AFA000704707F045BF00000200002010B508F010
:10AFB000BBFD002010BD000010B5094C01206071E0
:10AFC00004F04CFA0220607107F0FAF80320607177
:10AFD00008F0E6FC04206071BDE8104008F0B2BB48
:10AFE000580300202DE9F0412248234A8178491C6A
:10AFF0008170C179491CC1711188491C11801F4A97
:10B000001188491C11801E4A1178491C1170018A4F
:10B010001C4A491C01821178491C1170817A01294E
:10B0200025D1818A184D491C89B28182428A174EE6
:10B03000002400F10F0791420FD384720124C5F858
:10B04000B44113A008F0B5FDC6F8A4413878012832
:10B050000DD1BDE8F04104F0D9B8C6F8A441387864
:10B06000012802D1002004F0D1F8C5F8B441BDE8B0
:10B07000F0810000580300208E030020920300207E
:10B0800078030020F100002000802242008021424D
:10B09000B0B4C4A6D2CEB9A4D7F7CDA3D6B9000018
:10B0A0000C490888401C08800B49C88A401C80B2A3
:10B0B000C882B0F57A7F0CD90022CA82887B401CF6
:10B0C000C0B288733B2804D904488A734188491C5C
:10B0D000418070477C03002058030020AA450020CF
:10B0E0002DE9F04115464FF0FF36052821D201B376
:10B0F000FDB1174A00EB800002EB8000C468C4B1C8
:10B10000D4F81100D4F80D3042199A4204D3D4F87F
:10B1100001703B4493420FD80020A4F81500A4F816
:10B120001700FF21A176607654F8050F6060A068D3
:10B13000E0603046BDE8F0812A46FFF7C9FA54F8CE
:10B14000110F28442060E0882844E0800020F1E7C7
:10B150006205002070B51D4DFF2801D10121297223
:10B160002978C9070DD0297A002401290AD002299B
:10B1700007D11649164EFE28497A07D07054491C4B
:10B18000697270BD022028726C7270BD307888427E
:10B190000CD110A008F00DFD2878800702D508F02A
:10B1A000D7FF01E009F02CFA2C7270BD2C720DA0B3
:10B1B00008F0FFFC002404E0305D08F0F8FC641C9B
:10B1C000E4B2687A8442F7D370BD000058030020CF
:10B1D000DE4100205332B0FCBDD3CADCD5FDB3A3A1
:10B1E000000000005332B0FCB3A4B6C8D3D0CECA1E
:10B1F000CCE2A3ACB6AAB0FC2CB6AAB0FCCAFDBE89
:10B20000DDA3BA00F8B5032410235A011049082021
:10B21000009401F0BDFC0F480125C0F8A4510E4F69
:10B2200014232A4639464020009401F0B1FC0B4E0D
:10B23000C6F88051142302223946402006F5C07614
:10B24000009401F0A5FC7560BDE8F84004F058BA20
:10B25000000C014000802142001801400000234200
:10B2600008B508F0A3FA04F093FA01F051FE03F0D8
:10B2700027FE0020411E0090024B0F220120FFF705
:10B2800048FE08BDB1AE000800B50B4606F00AFA4C
:10B290000246184606F006FA40EA0210C0B200BDA7
:10B2A000F0B54F0804460646002509E014F8010BE6
:10B2B00014F8011BFFF7E8FF6D1C06F8010BADB297
:10B2C000BD42F3D3F0BDFEE738B501214020FDF7C4
:10B2D000DFFF4FF42040ADF8000010208DF8030090
:10B2E0000320084C8DF8020069462046FDF706FD54
:10B2F0004FF400412046FDF7ABFD61142046FDF7F9
:10B30000A5FD38BD0010014010B502460020054CD7
:10B3100005E012F8013B4340491EE05CC9B2002938
:10B32000F7D110BD5847010800B500F00FFB00F041
:10B330000DFB00F00BFB00F009FB5DF804EB00F0E7
:10B3400005BB000001460548406803E0027C8A42D4
:10B3500002D000680028F9D17047000004000020E6
:10B360002DE9F04384460022BCF81570FF2057B148
:10B37000DFF8609002EB4206002119F826309F4268
:10B3800004D91D4603E0FF20BDE8F0833D46ECB242
:10B3900009EB860509E0DCF8096005EB0108765C3D
:10B3A00098F80180464502D1491CA142F3DB99423D
:10B3B00004DAA14202D1FF2800D10520994205D12B
:10B3C00002EB420109EB8100C07ADDE7521C022A40
:10B3D000D0DBD9E7A04601082DE9F04384460022DE
:10B3E000BCF81570FF2057B1DFF8609002EB8206C1
:10B3F000002119F826309F4204D91D4603E0FF20A2
:10B40000BDE8F0833D46ECB209EB860509E0DCF8C7
:10B41000096005EB0108765C98F80180464502D189
:10B42000491CA142F3DB994204DAA14202D1FF2870
:10B4300000D10520994205D102EB820109EB810080
:10B44000C07CDDE7521C022AD0DBD9E7D0460108D8
:10B4500004480178012904D1002101700C20FFF774
:10B460003DBD7047020000200221014800F014B8E1
:10B47000300002400021014800F00EB858000240A0
:10B480000121014800F008B86C0002400321014886
:10B4900000F002B8300402402DE9F0470F46824622
:10B4A00001EB47002F4900EBC70001EB80042E4859
:10B4B000002600EBC7093546384601F02FFB8046D1
:10B4C0006CB1B9F1000F0AD0B8F1000F07D02649CE
:10B4D00007EB4700113908444078012803D04FF0AA
:10B4E000FF30BDE8F08721491AEB01000FD0282872
:10B4F00005D03C2807D0B0F5806F0ED10BE04FF49B
:10B500000036751009E04FF40016751005E04FF491
:10B510000076751001E0164E164D3046FDF77AF8AC
:10B52000F0B12846FDF789F8D8F8050060600E49AB
:10B5300007EB870000EBC700933901EB4000214681
:10B540008068001D2060202020620020A060D8F8C4
:10B550000100E0605046FCF7FCFF012189F8001073
:10B560000020BEE77C040020A4000020D0FFFDBF27
:10B5700000020010000100102DE9F05FDFF808B1B3
:10B5800000244FF0140A4148002700EBC40504EBE7
:10B59000440000EBC4013C480C3000EB8108E0B2F1
:10B5A00001F0BCFA0646042C0CD2DFE804F00204D9
:10B5B000070A374F06E0364F143703E0344F283F71
:10B5C00000E0344F46B33FB3B8F1000F24D01DB3B1
:10B5D0002E4904EB440011390844407801281BD15E
:10B5E000686810B16868401E68602878012818D023
:10B5F00068680028384620D0FCF7EAFFB6F801104A
:10B60000081A0004000C03D03BF81410814201D04A
:10B61000C5F804A02BF81400641C052CB3DBBDE8AE
:10B62000F09F00202870F076E0B200F035F8D6F8F0
:10B630000110304600F05CFB23E0FCF7C9FFB6F8D0
:10B640000110081A80B25FEA000918D000213846BC
:10B65000FCF7AAFFD6F80110C8F80C10414638468E
:10B66000FCF777FF01213846FCF79EFF0020F076BB
:10B67000E0B200F011F84946304600F039FB2BF8F3
:10B680001490C5F804A0C7E770040020A4000020AF
:10B69000580002403004024008B5034601F06AFA3F
:10B6A0000246052B12D2052A10D20020052B0DD2FE
:10B6B000DFE803F003060D101300094B009001E0D2
:10B6C000084B00900121C820FFF723FC08BD064B62
:10B6D0000090F7E7054B0090F4E7054B0090F1E789
:10B6E0006DF9000895FA0008E5FB000845FC000824
:10B6F000F9FC00082DE9F0410E46074601EB460033
:10B700001F4900EBC60001EB8004304601F006FA49
:10B71000050031D07CB33846FCF774FE06EB86009A
:10B7200000EBC601174800EB4106B068001D206021
:10B73000D5F8050060600020A060D5F80110C4E9CC
:10B7400003108021C4E905102021C4E90701C901C3
:10B75000C4E9091021463846FCF7FBFEB068012217
:10B760004021FEF7AFFE012202213846FCF727FFF9
:10B770000020BDE8F081FFE74FF0FF30F9E700005F
:10B780007C04002011000020F8B501F0BDF901682B
:10B790004FF0FF3500240E78E8B3244906EB46004D
:10B7A0000844407801283FD1052E3DD2042E21D2F5
:10B7B000DFE806F00209111901210846FDF75BFDDB
:10B7C0000F251B4C17E001210846FDF754FD184CCE
:10B7D000102514340FE001210846FDF74CFD144CF0
:10B7E0000D25283C07E001210220FDF744FD3A2504
:10B7F000104C00E07CB131462046FFF77BFF8DF80E
:10B80000005000208DF801008DF8020001208DF815
:10B810000300684600E007E0FCF789FD01212046AF
:10B82000FCF7C2FE0020F8BD2846F8BD93000020BA
:10B830005800024030040240052806D2DFE800F03C
:10B8400003050503030004F0C5BA70472DE9F04174
:10B8500016460C468046002504E0605D08F0A7F916
:10B860006D1CADB2B542F8D3A178607808F0F7FA54
:10B8700007462179E07808F0F2FA1C491C4D097856
:10B8800088420FD0FF280DD001280BD00021404660
:10B89000FFF730FB2878002825D04046BDE8F0416E
:10B8A00002F0C1BBB01F81B2601C06F0E4FB08B11E
:10B8B00002200FE0B01E81B2601CFFF7F1FC21797D
:10B8C0000020502908D0202F06D0212F04D0222F6D
:10B8D00002D001202870E0E7287032462146404619
:10B8E000FFF7AAFFD6E7BDE8F081000001000020C5
:10B8F000E800002070470000104910B50246486873
:10B900004FF0FF34C0B1037C934212D102684A6009
:10B910000AE00B7C93420BD1046821680160D4F8E3
:10B92000150000B18047204606F0D2FB002010BD74
:10B93000084601680029ECD1204610BD0400002013
:10B940000020401CC0B20928FBD370470020401CD7
:10B95000C0B21228FBD3704770B5054608E06424D6
:10B96000FFF7E9FA01E0FFF7DFFC641EE4B2FAD268
:10B970006D1EADB2F3D270BD70B50546002403E074
:10B98000FFF7E4FF641CE4B2AC42F9D370BD00B52C
:10B99000014601E0FFF7D4FF491E89B2FAD200BD8B
:10B9A00005280BD2074A00EBC0001044006828B1FC
:10B9B000807809B102F078BC02F066BC4FF0FF302D
:10B9C000704700002C040020027F022A01D000F002
:10B9D000E7B800F001B800002DE9F047ADF5027DB1
:10B9E00004004FF0FF3209D0607E00274FF0FF0ABD
:10B9F00048B1B4F8153033B1012814D010460DF514
:10BA0000027DBDE8F087A4F81570A4F8177084F8DB
:10BA10001AA0D4F80500C4F80900D4F80D00C4F841
:10BA2000110001206076D4F80900B4F81520815483
:10BA3000B4F81500401C80B2A4F81500D4F8092011
:10BA4000D4F80510521A1044D4F8012090420DDBAE
:10BA5000A4F81570A4F8177084F81AA06776C4F8D3
:10BA60000910D4F80D00C4F811000BE0A07E0428E2
:10BA700012D307E0491EA4F81510D4F80900401CA1
:10BA8000C4F809002046FFF7A7FCFF2803D1B4F84B
:10BA900015100029EED1A076042878D206F056FBC6
:10BAA000020074D0B4F81560917A0020D4F80950DF
:10BAB000731A2B440FF2DC0CDCE9008CCDE9808C8E
:10BAC0000DF50079082901D0CC4619E002EB0008F9
:10BAD00019F800C098F80B80C44502D1401C81427F
:10BAE000F4DC81420EDC33208DF802028DF8030273
:10BAF00008E002EB000898F80B800CF80080401C6E
:10BB00008142F6DC002006E013F8008019F800C03E
:10BB1000E04502D1401C8142F6DC814237DC507A9C
:10BB2000864228D34FF400716846FEF7EAFD0021F3
:10BB300008466B46194A0DE0471C15F800C0EF5D3A
:10BB40001CF802C0BF5C07EB0C175F54491C801C3B
:10BB500089B280B28642EFD8002005E0D4F80950BF
:10BB60001A5C2A54401C80B28842F7D3A4F81510FE
:10BB7000042060760BE0A4F81570A4F8177084F820
:10BB80001AA0677654F8050F6060A068E060002096
:10BB900035E700004343454543333343F04601084E
:10BBA0002DE9F84304004FF0FF3208D0607E0025F5
:10BBB000FF2638B1B4F8153023B1012811D0104652
:10BBC000BDE8F883A4F81550A4F81750A676D4F869
:10BBD0000500C4F80900D4F80D00C4F811000120D4
:10BBE0006076D4F80900B4F815208154B4F8150033
:10BBF000401C81B2A4F81510D4F80920D4F805002F
:10BC0000121A1144D4F8012091420CDBA4F815500B
:10BC1000A4F81750A6766576C4F80900D4F80D008C
:10BC2000C4F811000BE0A07E042812D307E0491EDF
:10BC3000A4F81510D4F80900401CC4F809002046E7
:10BC4000FFF78EFBFF2803D1B4F815100029EED1C1
:10BC5000A076042847D206F063FA020043D0B4F875
:10BC600015909179D4F80970A9EB01031F441FA323
:10BC700000201B68EC460093042915D102EB000854
:10BC80001CF8003098F80780434502D1401C8142DF
:10BC9000F4DC81420ADC33208DF8010006E0131841
:10BCA000DB790CF80030401C8142F8DC002005E014
:10BCB0003B5C1CF80080434502D1401C8142F7DC0C
:10BCC000814210DC5179894502D3042060760AE074
:10BCD000A4F81550A4F81750A676657654F8050F09
:10BCE0006060A068E06000206AE70000CCEEC33C22
:10BCF0002DE9F84F8B4604004FF000050BD0E946C4
:10BD000000264FF0FF0A9DE0607E40B1B4F81510A8
:10BD100029B1012813D04FF0FF30BDE8F88FA4F807
:10BD20001560A4F8176084F81AA0D4F80500C4F8C8
:10BD30000900D4F80D00C4F8110001206076B4F8B1
:10BD40001500401C81B2A4F81510D4F80920D4F8CD
:10BD50000500121A1144D4F8012091420DDBA4F819
:10BD60001560A4F8176084F81AA06676C4F8090074
:10BD7000D4F80D00C4F811000BE0A07E042812D303
:10BD800007E0491EA4F81510D4F80900401CC4F8B7
:10BD900009002046FFF7E4FAFF2803D1B4F8151094
:10BDA0000029EED1A07604284BD206F0B9F90200A2
:10BDB00047D0B4F815809179D4F80970A8EB010345
:10BDC00003EB070C22A300201B680093042901D079
:10BDD0004B4612E0171819F80030FF79BB4202D128
:10BDE000401C8142F6DC814209DC33208DF80100E1
:10BDF00005E01718FF791F54401C8142F9DC002030
:10BE000006E01CF8007019F800309F4202D1401C77
:10BE10008142F6DC814214DC5079804502D3042053
:10BE200060760EE0A4F81560A4F8176084F81AA0F4
:10BE30006676D4F80500C4F80900D4F80D00C4F8FB
:10BE400011006D1C5D45FFF65FAF002065E7000047
:10BE5000CCEEC33C70B5074D002404EB840005EB29
:10BE60008000806800B18047641C052CF5DB002051
:10BE700070BD00006205002070B5144E1BE03088D4
:10BE8000401E3080746814E0A0682568002802DD38
:10BE9000401EA0600CE06068A060E068002802DD41
:10BEA000401EE0600BE0401C09D0207CFFF724FD21
:10BEB0002C46002CE8D130880028E0D170BDD4F8A1
:10BEC00011000028F4D08047F2E7000004000020B1
:10BED000052806D2DFE800F003050505030000F0A1
:10BEE0002DB8704770B506460C464878124915467D
:10BEF0000978884207D0FF2805D03046BDE8704059
:10BF00000021FEF7F7BF2079E17800EB012080B235
:10BF1000A5F10B0188420DD1E81F81B2601C06F02B
:10BF200093F8012806D12A4621463046BDE87040E4
:10BF3000FFF7CEBF70BD00000100002070B51346B2
:10BF40008A7800240D4D0646F82A07D0F92A04D134
:10BF50001A4602F0F7F8A5F8014070BD0849012023
:10BF6000087008480178304600F03DF8304600F08F
:10BF700011F8304600F054F8EDE70000F900002019
:10BF8000020000200100002013B5012201A9FEF7E4
:10BF900091FF1CBD7CB5054600246A4601A9FEF749
:10BFA00093FF002816DB009801990088401F000AC3
:10BFB000C87000980278521F0A7100880022401E43
:10BFC000491C05E011F8013B521C23449CB292B27B
:10BFD0009042F7DC210A2846FFF7D6FFE1B2284657
:10BFE000FFF7D2FF7CBD70B50C4616460546022110
:10BFF000FEF780FFAA212846FFF7C6FF2146284604
:10C00000FFF7C2FF31462846FFF7BEFF0021284652
:10C01000FFF7BAFF2846BDE870400021FFF7B4BF24
:10C0200010B50446CC21FFF7AFFF33212046FFF7C0
:10C03000ABFFC3212046FFF7A7FF3C212046FFF7B7
:10C04000A3FF2046BDE81040FEF76EBF10B550B10B
:10C05000806830B10A0040F2277100D00122FEF75B
:10C060000DFA002010BD4FF0FF3010BD0249002036
:10C070004880FCF790BF00000C00002070B50F4D09
:10C0800010212846FCF7E4FE9F2002F0E7FC02F0B6
:10C09000E1FC0B4C607002F0DDFCA070A52002F00A
:10C0A000DDFC10212846FCF7D1FEA078252802D01F
:10C0B0002621217070BD2521FBE70000000801400A
:10C0C000D80000202DE9F05F624D03272846A978AB
:10C0D0004078042600244FF002084FF47A7B0629AA
:10C0E0000DD2DFE801F0030E222A515E05F0EAFFCF
:10C0F00059A007F041FD6C700120A8702C70BDE8BC
:10C10000F09F022803D96C702C70AC70EE7054490B
:10C1100054A007F05BFE0028F1D053A007F049FDC2
:10C120002C7085F80280EF7091E005F0CBFF52484B
:10C1300007F022FD6C70AF70E1E7022812D96C7035
:10C1400085F802804DA007F034FD2878401CC0B26D
:10C1500028700C2806D94DA007F02BFD2C70AC7070
:10C16000EE706C703E494CA007F030FE0028C6D03F
:10C170004BA007F01EFD2C70AE70EF706C7058462F
:10C18000BDE8F05FFFF7E8BB48A007F012FD05F03F
:10C1900099FF3948083807F0EFFC6C700520A8704B
:10C1A000ADE7022811D96C70AE7043A007F001FD15
:10C1B0002878401CC0B22870052806D942A007F094
:10C1C000F8FC2C70AC70EE706C704348DFF8909007
:10C1D000007858B10026494622A007F0F7FD002854
:10C1E0008DD03E4900204A460B8810E01C493CA0F7
:10C1F00007F0ECFD074610E0115C302905D3392922
:10C2000003D8052E05D2761CF6B2401C80B29842A7
:10C21000F2D3052890D3401F87B2002F8CD034A0D2
:10C2200007F0C7FCDFF8D8A00026B91919F80100FB
:10C230000AF8060007F0BBFC761CB6B2142EF4D345
:10C240005846FFF789FB2C70AC7085F803806C7042
:10C2500055E70000F40000204154453056310000FD
:10C26000482900204F4B0000BBD8CFD4B9D8B1D556
:10C27000B3C9B9A600000000FB020020B2E973694F
:10C280006DBFA8D7B4CCACB3ACCAB10073696DBFF5
:10C29000A8B2BBB4E6D4DA005245414459000000CC
:10C2A000B2E973696DBFA8B3C9B9A600B2E97369F1
:10C2B0006DBFA8BAC5000000B2E973696DBFA8BA26
:10C2C000C5B3ACCAB100000073696DBFA8BAC5B2EE
:10C2D000BBB4E6D4DA00000019010020F20000200F
:10C2E0002B47455449434349443A30780000000005
:10C2F000B2E973696DBFA8BAC5B3C9B9A600000099
:10C30000482D00202DE9F0475E4E01270024B0782B
:10C310004FF00408002858D03146032549784FF4DF
:10C320007A7901286DD003287ED004287DD1062992
:10C3300011D37470B47054A007F03BFC3078401CEB
:10C34000C0B23070072806D93470B470F5707470BC
:10C3500051A007F02EFC544954A007F037FD48B116
:10C36000F770B4703470747051A007F022FC484626
:10C37000FFF7F2FA4C4953A007F028FD48B1F770D7
:10C38000B470347074704AA007F013FC4846FFF78D
:10C39000E3FA454950A007F019FD00286FD0B470AA
:10C3A0003078401CC0B2411C3170072805D9347068
:10C3B000F570747038A007F0FCFB49A007F0F9FB9A
:10C3C0004846BDE8F047FFF7C7BA49490878401C1E
:10C3D000C0B20870032807D9347086F803807470DF
:10C3E0000C7044A007F0E5FB05F06CFE40482230DD
:10C3F00007F0C2FBB770747042A0BDE8F04707F0C9
:10C40000D8BB062914D37470B47041A007F0D1FBD7
:10C410003078401CC0B23070072809D93470B4702D
:10C42000F57074701CA001E01EE028E007F0C1FB6D
:10C430001D493BA007F0CAFC022748B1F770B57050
:10C44000347074703BA007F0B4FB4846FFF784FAE1
:10C45000154921A007F0BAFC002810D0F770B5707C
:10C460003470747037A0A9E705F02CFE20482F30F7
:10C4700007F082FB86F80280747036A0BDE7BDE845
:10C48000F0870000F4000020CDF8C2E7C1ACBDD3B6
:10C49000B3ACCAB100000000BDF8C8EB43444D4145
:10C4A000D6D8C6F400000000482900204F4B0000F9
:10C4B000B4F2BFAACDF8C2E7C1ACBDD3B3C9B9A627
:10C4C000000000002B5A5050504F50454E3A434FF9
:10C4D0004E4E4543544544004552524F52000000D1
:10C4E000B4F2BFAACDF8C2E7B4EDCEF3000000006D
:10C4F000F2020020BDF8C8EB63646D61B8B4CEBB36
:10C5000000000000B9D8B1D5C1ACBDD30000000017
:10C51000CDF8C2E7B9D8B1D5B3ACCAB100000000BC
:10C520002B5A5050505354415455533A20434C4F7A
:10C5300053454400CDF8C2E7B9D8B1D5B3C9B9A6BF
:10C5400000000000CDF8C2E7B9D8B1D5B4EDCEF304
:10C5500000000000B4F2BFAACDF8C2E7C1ACBDD361
:10C560000000000070B52F4C0025A078002846D0B0
:10C57000012853D16078022605280FD36570A57075
:10C5800029A007F016FB2078401CC0B2411C217086
:10C590000F2803D92570A570E6706570254926A07F
:10C5A00007F014FC20B1E570A57025A007F001FB91
:10C5B000204926A007F00AFC20B1E570A57020A054
:10C5C00007F0F7FA1B4925A007F000FC20B1E57041
:10C5D000A57025A007F0EDFA164926A007F0F6FB96
:10C5E00000281BD02570A570E670657023A007F0A9
:10C5F000E0FABDE870404FF47A70FFF7ADB922A0C1
:10C6000007F0D7FA05F05EFD2148C07938B121491D
:10C61000214802F0D2FE0120A070657070BD1F4954
:10C62000F6E70000F4000020D6D8C1ACB3ACCAB124
:10C6300000000000482900204D49504F50454E0051
:10C64000D6D8C1ACB3C9B9A631000000414C52459F
:10C6500041445920434F4E4E45435400434F4E4EA4
:10C66000454354204F4B0000D6D8C1ACB3C9B9A63E
:10C67000320000004552524F52000000D6D8C1ACE3
:10C68000B4EDCEF300000000D6D8C1AC4950000094
:10C69000F900002002010020040300206D010020A9
:10C6A0002DE9F05F00240E468046274605F00AFD7E
:10C6B0003A4807F072FA4FF47A7BDFF8E4A0354687
:10C6C0005E450BD9B5FBFBF91AF8090007F052FAE1
:10C6D0001AF8090007F06BFA0BFB1955642E0DD9F7
:10C6E0006420B5FBF0F91AF8090007F043FA1AF8CC
:10C6F000090007F05CFA642101FB19550A20B5FB1B
:10C70000F0F91AF8090007F035FA0A2101FB19556A
:10C710001AF8050007F02EFA1AF8090007F047FA90
:10C720001AF8050007F043FA0D2007F023FA0A2053
:10C7300007F020FA4FF4C8795D460CE0FEF7FBFBEA
:10C74000FFF704F9641CA4B24C4504D97F1C0024F3
:10C75000BFB2AF4205D8134913A007F037FB00283A
:10C76000ECD0002409E018F8040007F020FA18F8CB
:10C77000040007F0FFF9641CA4B2B442F3D30D2007
:10C7800007F015FA0A2007F012FA0D2007F0F2F967
:10C790000A2007F0EFF90020BDE8F09F44030020D5
:10C7A000A2030020482900203E00000070B52BA005
:10C7B00007F0FFF92D4D2C4C287804EB1010007871
:10C7C00007F0F5F9287800F00F00205C07F0EFF98A
:10C7D000274D288878B3688804EB1030007807F07C
:10C7E000E6F96888C0F30320205C07F0E0F9A87838
:10C7F000C0F30310205C07F0DAF9A87800F00F000E
:10C80000205C07F0D4F9288804EB1030007807F09A
:10C81000CEF92888C0F30320205C07F0C8F92878F7
:10C82000C0F30310205C07F0C2F9287800F00F0075
:10C83000205C07F0BCF900F07DF80E4C0E48218812
:10C8400003F0F2F90D48C078002805D12188BDE831
:10C850007040094806F0D0BA70BD0000B7A2CBCD39
:10C86000D0C4CCF800000000A2030020F00000209B
:10C87000AA450020A00300200D460020F40000205F
:10C880002DE9F0411D4D1E4E0024287840B30128AB
:10C8900024D128891B4FDFF87080052810D92C700F
:10C8A0006C70387840F04000387018A007F081F9BB
:10C8B00034700A20688198F80010491C88F800102C
:10C8C000687801280AD1387800F0BF0038702C70E1
:10C8D00013A007F06EF9347088F80040BDE8F081CD
:10C8E00028896989884206D32C81FFF75FFF0120E0
:10C8F00028706C70F2E73470F0E7000086030020C7
:10C900000101002058030020ED000020B5C8B4FD4F
:10C91000B7FECEF1C6F7B3ACCAB1310D0A000000C4
:10C92000B7FECEF1C6F7B7A2CBCDB3C9B9A6310DCC
:10C930000A000000F0B52E48B5B0002407792D4854
:10C9400090F82A0008B947F080072B4900206D466F
:10C950000A5C2A55401C641CC0B2A4B21028F7D34C
:10C9600010212548FEF7D0FC2855641CA0B20026F3
:10C970002E542249401C80B2097829542049401C79
:10C9800080B209782954401C80B21E492F54401CA3
:10C9900080B209782954401C84B24FF066321A4B99
:10C9A0001AA132A803F000FD002032A90A5C2A5522
:10C9B000641C401CC0B2A4B20628F7D3154900205D
:10C9C0000A5C2A55641C401CC0B2A4B21428F7D3D8
:10C9D00000202E55641C401CC0B2A4B21428F8D309
:10C9E0001D222146684606F029FB35B0F0BD000047
:10C9F0007E030020AA450020D84200205E030020CC
:10CA000070030020F0000020666612405625342E88
:10CA100032660000482D002030B587B000240C4954
:10CA200020466D460A5C2A55401C641CC0B2A4B264
:10CA30001028F7D310210648FEF766FC2855641C21
:10CA4000A1B21D22684606F0F9FA07B030BD000019
:10CA5000D842002010B504F019F9FFF711FF01F0DA
:10CA60003FFABDE8104001F04FBF000070B5124D15
:10CA70004FF4004421462846FCF7EAF9A610314657
:10CA80002846FCF7E3F94FF47A70FEF765FF21467C
:10CA90002846FCF7DBF931462846FCF7D7F9322067
:10CAA000FEF75AFF21462846FCF7D0F931462846C2
:10CAB000BDE87040FCF7CCB90010014010B54FF054
:10CAC000FF3305280DD2084C00EB800004EB8000FA
:10CAD000C06830B1D0F80D3017300B601060002006
:10CAE00010BD184610BD000062050020052806D2C2
:10CAF000044900EB800001EB8000C0687047002013
:10CB00007047000062050020052803D2024951F851
:10CB100020007047002070475C040020052807D2E1
:10CB2000044900EBC000084400688078FFF7DEBFCE
:10CB3000002070472C04002070B50C4C00254622C4
:10CB40000B492046FDF7C4FD002014F8011B401CD2
:10CB500029448DB24428F8D30448B0F84400A842D0
:10CB600002D04FF0FF3070BD002070BDE403002004
:10CB700000780008052806D2044900EBC0000844EC
:10CB80000068807870470520704700002C04002062
:10CB9000F8B50F461D4614460121069EFCF778FBAA
:10CBA000ADF800408DF802608DF8035069463846B4
:10CBB000FCF7A4F8F8BDFEE771B602210948C0F8F9
:10CBC00026100021418102F041F9012080F31388F1
:10CBD00005480168054A01F4E06111430160BFF3B3
:10CBE000408FFEE7E40300200CED00E00400FA05AE
:10CBF000F8B5154C154E206C3289851862B1042A9F
:10CC00000AD2311D6846FDF763FD114900980422E0
:10CC10000860306801F06EFF0020A063E06302212D
:10CC200044F8261F60600B48A060E56002F00EF932
:10CC30000948009000230A22012140F6B830FEF78F
:10CC400068F90020F8BD0000E4030020580500202A
:10CC5000D400002000800008B9CB000870B50C4655
:10CC6000124D012178B9082A0DD364B100202B1888
:10CC7000225C93F838309A4202D1401C0828F6DB37
:10CC8000082800D100210A4A0020108159B1106003
:10CC9000286402F083F82068A8636068E86302F003
:10CCA000D5F8002070BD286C106070BDE403002032
:10CCB000580500202DE9F04FADF5177D0D46804653
:10CCC0004FF416716846FDF71CFDDFF8BCA1002685
:10CCD0004FF0FF3BDAF800406019C70ABAF80800C5
:10CCE0004FEAD429FF024FEAC92904287DD2FEF772
:10CCF00022F9B94579D814F0030F76D1BAF8082093
:10CD000057462AB107F1040196A8FDF7E1FC3E89D8
:10CD10000D2006F04CFF0A2006F049FF5BA006F04C
:10CD200059FF5C4CC5F30330205C06F040FFC5F3AF
:10CD30000320205C06F03BFFC5F30310205C06F0E7
:10CD400036FF05F00F00205C06F031FF0D2006F0E5
:10CD50002EFF0A2006F02BFFB94638682A464146C6
:10CD600001F080FF38682A46694601F091FE0D20E7
:10CD700006F01DFF0A2006F01AFF47A006F02AFF62
:10CD8000386804EB1070007806F011FF3868C0F3C3
:10CD90000360205C06F00BFF3868C0F30350205C92
:10CDA00006F005FF3868C0F30340205C06F0FFFE84
:10CDB0003888C0F30330205C06F0F9FE3888C0F3F1
:10CDC0000320205C06F0F3FE3878C0F30310205CEB
:10CDD00006F0EDFE387800F00F00205C06F0E7FE6C
:10CDE0000D2006F0E4FE0A2000E011E006F0DFFE70
:10CDF00000246F4608E018F80410385D81420CD119
:10CE000006F0D5FE641CA4B2AC42F4D3AC4208D008
:10CE100058460DF5177DBDE8F08F21A006F0C9FE3C
:10CE2000F4E70D2006F0C3FE0A2006F0C0FE2A46F5
:10CE30006946002001F02CFE0024385D06F0B7FEA4
:10CE4000641CA4B2FF2CF8D90D2006F0B0FE0A2015
:10CE500006F0ADFED9F800004C464119C9F80010A3
:10CE60003200A9F8082004D096A9201DFDF730FC57
:10CE700021680E48026C8A4202D0016401F0E6FF8C
:10CE8000FEF759F80020C4E758050020B3A4B6C83F
:10CE90003A000000A2030020D7DCB3A4B6C83A00D1
:10CEA000666C617368BBB5C1CB000000E403002071
:10CEB00010B5FBF7BDF94FF40041BDE81040080381
:10CEC000FBF768BA10B5FFF7F3FFFEF709F8FDF7B7
:10CED000F3FFFEF711F8FEF708F8BDE81040FEF783
:10CEE00025B8000008B500200090084B0C22012155
:10CEF0004FF4FA60FEF70DF8FEF758F8FEF736F833
:10CF0000FEF70DF8BDE80840FDF7D8BF03AF0008F5
:10CF10002DE9F04F91B0E5480F901422E4A1684646
:10CF2000FDF7D6FB1422E7A105A8FDF7D1FB0025EC
:10CF30002F46A846E8A006F03CFEEB4E00240DF17B
:10CF4000280B0F980059D946C0B20BF8040006EB25
:10CF50001010007806F02BFE19F8040000F00F0006
:10CF6000305C06F024FE641CE4B20C2CE9D3DFA094
:10CF700006F01FFEE14CDFF888930026DFF868A377
:10CF8000A05D09F806000AEB1010007806F00FFE0D
:10CF900019F8060000F00F011AF8010006F007FE6C
:10CFA00019F80600FF2801D018B106E07F1CFFB277
:10CFB00003E008F1010000F0FF08761CF6B2102E25
:10CFC000DCD30D2006F0F3FD0A2006F0F0FD00266C
:10CFD00019F8060006F0EBFD761CF6B2102EF7D31A
:10CFE0000D2006F0E4FD0A2006F0E1FD102F01D12E
:10CFF00045F00105B8F1100F01D145F0020599F88F
:10D000000300C04E322806D0332809D0BEA006F057
:10D01000D0FD002008E0BFA006F0CBFD012003E01A
:10D02000BEA006F0C6FD022030709DB3BDA006F084
:10D03000C0FDCB460026D1460AA8DA46805D0BF833
:10D04000060009EB1010007806F0B1FD1AF8060092
:10D0500000F00F0119F8010006F0A9FD761CF6B2E8
:10D060000C2EE9D30C264FF0000BCA46DFF8909245
:10D0700009F806B09AF8000006F099FD19F80600C4
:10D0800000F00F011AF8010006F091FD761CF6B2CF
:10D09000102EEBD3A6A006F08CFDDFF89CA2002694
:10D0A000A019007C0AF8060050B106F080FD1AF8BD
:10D0B0000600FF2801D018B106E07F1CFFB203E094
:10D0C00008F1010000F0FF08761CF6B2162EE7D337
:10D0D000162F01D145F00405B8F1160F01D145F026
:10D0E00008050027B84695A006F063FDDFF85492C6
:10D0F0000026A01990F8260009F8060050B106F0A5
:10D1000056FD19F80600FF2801D018B106E07F1C73
:10D11000FFB203E008F1010000F0FF08761CF6B250
:10D12000162EE6D3162F01D145F00405B8F1160FDF
:10D1300001D145F0080515F00C0F1BD082A006F0B8
:10D1400038FD00260DF11408574618F80600B855AA
:10D1500006F02DFD761CF6B2162EF6D30026E84614
:10D160004F4618F80600B85506F021FD761CF6B2B9
:10D17000162EF6D377A006F01CFD7A4F94F86D00BA
:10D18000DFF86481F87094F85800B87008EB10105C
:10D190004646007806F00BFDB87800F00F00305CD2
:10D1A00006F005FDB8786421FF2803D010B1F878A7
:10D1B000CC2803D0CC20B970F8700125B97025B106
:10D1C00069A006F0F6FC03F085F86BA006F0F1FC10
:10D1D0006C4E0025601990F83C00705508B106F0BF
:10D1E000E6FC6D1CEDB2162DF4D367A006F0E1FC51
:10D1F00066A006F0DEFC4FF06632684B68A10DA811
:10D2000003F0D2F800250DAE705D06F0D0FC6D1C69
:10D21000EDB2062DF8D364A006F0CBFCDFF8449104
:10D22000002509F106094646601990F8540009F8EE
:10D230000500305C06F0BBFC6D1CEDB2022DF3D393
:10D2400094F85600387040B3012828D05AA006F050
:10D25000B0FC94F85700787018B3012823D059A077
:10D2600006F0A7FC59A006F0A4FC5B4F002560194E
:10D2700090F85900785506EB1010007806F097FCEE
:10D28000785D00F00F00305C06F091FC6D1CEDB293
:10D29000142DECD311B0BDE8F08F50A0D7E752A009
:10D2A000D5E754A0DCE755A0DAE70000E8F7FF1F58
:10D2B0003132332E3135392E3139332E32322C374B
:10D2C000323732003132332E3135392E3139332E67
:10D2D00032322C3732373100B6C1C8A1C8ABC7F2E1
:10D2E000CEA8D2BB49440000A2030020B6C1C8A109
:10D2F000B0B4C4A6D2CE69640000000000E8030800
:10D30000D842002067030020C8F0C0B3BFCBCBB920
:10D3100000000000D6C6D1F5BBFA0000CDB6B1D2F0
:10D32000BBFA0000CBA2C8EBD4ADB3A749440000C0
:10D33000B6C1C8A1544350006D010020B6C1C8A1B8
:10D340005544500095020020CBA2C8EBD4ADB3A742
:10D3500049500000B6C1C8A1D6D5B6CBCAFDC1BFE1
:10D360000000000098030020D0B4C8EB666C617325
:10D370006849444950000000B6C1C8A1C9FDBCB607
:10D3800049500000F745002020000000B6C1C8A1A8
:10D39000C8EDBCFEB0E6B1BE0000000066661240FB
:10D3A0005625342E32660000B6C1C8A1D3B2BCFEE9
:10D3B000B0E6B1BE00000000D4CBD3AAC9CC3DC1B9
:10D3C000AACDA800C4A3BFE93D344700B6C1C8A197
:10D3D00053494DBFA8494400482D0020D4CBD3AABF
:10D3E000C9CC3DB5E7D0C500D4CBD3AAC9CC3DD27A
:10D3F000C6B6AF00C4A3BFE93D324700C4A3BFE92E
:10D400003D33470038B5154940F2DC5001F6B834D9
:10D4100001F2DC52C4F80510C4F80D2044F8010FE5
:10D42000002004F8010CA082E082FF2363762076BE
:10D43000A1602261A0760420641EFFF765FB084905
:10D44000084B094A086009490420009401F018FAC1
:10D45000BDE838400420FEF797B90000C60500205B
:10D46000DC000020C9E2000841E3000875E4000880
:10D4700038B5154840F2DC5200F6B83400F2DC5101
:10D48000C4F80500C4F80D1044F8012F002204F878
:10D49000012CA282E282FF2363762276A0602161C2
:10D4A0000220A0760320641EFFF72EFB0749084BDD
:10D4B000084A086008490320009401F0E1F9BDE83A
:10D4C00038400320FEF760B9721D0020E400002000
:10D4D00019E3000801E40008C5E5000838B515485F
:10D4E00040F2DC5200F6B83400F2DC51C4F805001A
:10D4F000C4F80D1044F8012F002204F8012CA28278
:10D50000E282FF2363762276A06021610120A0766B
:10D510001046641EFFF7F8FA0749084B084A0860EE
:10D5200008490020009401F0ABF9BDE83840002024
:10D53000FEF72AB99C110020E0000020F1E200086B
:10D540008DE300081DE5000830B5002208E08B1AC5
:10D550000344845C13F8015D8554521C1C7092B224
:10D56000B2EB510FF3D330BD08B503201023009068
:10D570005A0204492020FFF70BFB03490020C1F8A1
:10D58000B40108BD00140140008022421FB50121F2
:10D590000820FBF78AFE184C2046FCF761F84FF490
:10D5A0007A71ADF804104720ADF800000021ADF805
:10D5B0000610ADF8021069462046FCF725F9012255
:10D5C00011462046FCF7E9FB00212046FCF7C3FC8E
:10D5D00000212046FCF7C6FB32208DF80C0002200B
:10D5E0008DF80D008DF80E0001208DF80F0003A8B6
:10D5F000FAF79DFE1FBD0000000C0040012101480C
:10D60000FCF7B0BB000C00402DE9F05F624D032732
:10D610002846A9784078042600244FF002084FF4E9
:10D620007A7B06290DD2DFE801F0030E222A515E33
:10D6300004F048FD59A006F09FFA6C700120A87014
:10D640002C70BDE8F09F022803D96C702C70AC7070
:10D65000EE70544954A006F0B9FB0028F1D053A055
:10D6600006F0A7FA2C7085F80280EF7091E004F0C4
:10D6700029FD524806F080FA6C70AF70E1E702288D
:10D6800012D96C7085F802804DA006F092FA2878C5
:10D69000401CC0B228700C2806D94DA006F089FAAB
:10D6A0002C70AC70EE706C703E494CA006F08EFB96
:10D6B0000028C6D04BA006F07CFA2C70AE70EF703C
:10D6C0006C705846BDE8F05FFEF746B948A006F01A
:10D6D00070FA04F0F7FC3948083806F04DFA6C701F
:10D6E0000520A870ADE7022811D96C70AE7043A078
:10D6F00006F05FFA2878401CC0B22870052806D9C9
:10D7000042A006F056FA2C70AC70EE706C70434874
:10D71000DFF89090007858B10026494622A006F024
:10D7200055FB00288DD03E4900204A460B8810E06A
:10D730001C493CA006F04AFB074610E0115C30296A
:10D7400005D3392903D8052E05D2761CF6B2401C24
:10D7500080B29842F2D3052890D3401F87B2002FA1
:10D760008CD034A006F025FADFF8D8A00026B9192D
:10D7700019F801000AF8060006F019FA761CB6B28C
:10D78000142EF4D35846FEF7E7F82C70AC7085F8E9
:10D7900003806C7055E70000F400002041544530D0
:10D7A00056310000482900204F4B0000BBD8CFD491
:10D7B000B9D8B1D5B3C9B9A600000000B4020020A1
:10D7C000B2E973696DBFA8D7B4CCACB3ACCAB10031
:10D7D00073696DBFA8B2BBB4E6D4DA0052454144C8
:10D7E00059000000B2E973696DBFA8B3C9B9A600BA
:10D7F000B2E973696DBFA8BAC5000000B2E97369E8
:10D800006DBFA8BAC5B3ACCAB100000073696DBFE3
:10D81000A8BAC5B2BBB4E6D4DA00000019010020F2
:10D82000F20000202B47455449434349443A30789D
:10D8300000000000B2E973696DBFA8BAC5B3C9B9E9
:10D84000A6000000482D00202DE9F0475E4E01277C
:10D850000024B0784FF00408002858D03146032542
:10D8600049784FF47A7901286DD003287ED00428B6
:10D870007DD1062911D37470B47054A006F099F9C3
:10D880003078401CC0B23070072806D93470B470AC
:10D89000F570747051A006F08CF9544954A006F04C
:10D8A00095FA48B1F770B4703470747051A006F0F6
:10D8B00080F94846FEF750F84C4953A006F086FA26
:10D8C00048B1F770B470347074704AA006F071F902
:10D8D0004846FEF741F8454950A006F077FA00287F
:10D8E0006FD0B4703078401CC0B2411C3170072832
:10D8F00005D93470F570747038A006F05AF949A053
:10D9000006F057F94846BDE8F047FEF725B8494903
:10D910000878401CC0B20870032807D9347086F814
:10D92000038074700C7044A006F043F904F0CAFB45
:10D930004048243006F020F9B770747042A0BDE86A
:10D94000F04706F036B9062914D37470B47041A0BC
:10D9500006F02FF93078401CC0B23070072809D982
:10D960003470B470F57074701CA001E01EE028E003
:10D9700006F01FF91D493BA006F028FA022748B11E
:10D98000F770B570347074703BA006F012F9484619
:10D99000FDF7E2FF154921A006F018FA002810D083
:10D9A000F770B5703470747037A0A9E704F08AFB83
:10D9B00020482F3006F0E0F886F80280747036A018
:10D9C000BDE7BDE8F0870000F4000020CDF8C2E715
:10D9D000C1ACBDD3B3ACCAB100000000BDF8C8EB08
:10D9E00043444D41D6D8C6F4000000004829002029
:10D9F0004F4B0000B4F2BFAACDF8C2E7C1ACBDD313
:10DA0000B3C9B9A6000000002B5A5050504F5045E2
:10DA10004E3A434F4E4E4543544544004552524FB3
:10DA200052000000B4F2BFAACDF8C2E7B4EDCEF3C5
:10DA300000000000AB020020BDF8C8EB63646D611C
:10DA4000B8B4CEBB00000000B9D8B1D5C1ACBDD3CD
:10DA500000000000CDF8C2E7B9D8B1D5B3ACCAB167
:10DA6000000000002B5A5050505354415455533A23
:10DA700020434C4F53454400CDF8C2E7B9D8B1D547
:10DA8000B3C9B9A600000000CDF8C2E7B9D8B1D536
:10DA9000B4EDCEF300000000B4F2BFAACDF8C2E7A7
:10DAA000C1ACBDD30000000070B52A4C0025A078A1
:10DAB00000283CD0012849D16078022605280FD3E0
:10DAC0006570A57024A006F074F82078401CC0B2E0
:10DAD000411C21700F2803D92570A570E670657070
